:020000040800F2
:1000000078070020D5010008B52B0008312A000828
:10001000B12B0008C50C0008E12C0008000000000E
:10002000000000000000000000000000BD2B0008E0
:10003000C90C000800000000B92B0008C12B000803
:10004000EF010008EF010008EF010008EF010008D0
:10005000EF010008EF010008EF010008EF010008C0
:10006000EF010008EF010008EF010008EF010008B0
:10007000EF010008EF010008EF010008EF010008A0
:10008000EF010008EF010008EF010008EF01000890
:10009000EF010008EF010008EF010008EF01000880
:1000A000EF010008EF010008EF010008EF01000870
:1000B000EF010008EF010008EF010008EF01000860
:1000C000EF010008EF010008EF010008EF01000850
:1000D000EF010008D52C0008EF010008EF0100082F
:1000E000EF010008EF010008EF01000800F002F83E
:1000F00000F060F814A696E8000CB244B344DA4568
:1001000001D100F057F8BAE80F000FA696E83000CA
:10011000A5EB040504EB0607AAEB0704A7F101070A
:100120004FEA15154FEA3414A4F10104AC4201D38F
:1001300000F040F813F0010F18BFFB1A43F0010361
:1001400000F001F8DBE71847AC5B0000CC5B000077
:10015000103A24BF78C878C1FAD8520724BF30C8F3
:1001600030C144BF04680C60704700007047000055
:100170000023002400250026103A28BF78C1FBD8B0
:10018000520728BF30C148BF0B607047662905F091
:100190004C84642900F05280002070471FB500F0A5
:1001A000BFFB04000020002104F096FBE0601FBDAF
:1001B00010B510BD00F0B8FC1146FFF7EFFF02F0DC
:1001C00049FE00F0D6FC03B4FFF7F2FF03BC00F0D9
:1001D00019FD00000948804709480047FEE7FEE78F
:1001E000FEE7FEE7FEE7FEE7FEE7FEE7FEE7FEE7E7
:1001F00004480549054A064B70470000C52B000816
:10020000ED00000878010020780700207803002026
:10021000780300200FB41CB5074B06AA7B4469463F
:100220000090059800F063FB0020694600F072FB27
:100230001CBC5DF814FB0000F50600002DE9F04140
:100240000646002410687529314616A510D0AFF374
:100250000080002802DA404213A507E031688A07CF
:1002600001D512A502E0490704D511A5012401E03A
:10027000AFF3008000210A2206F1240709E0B0FB59
:10028000F2FCB0FBF2F302FB1C003030785418464D
:10029000491C0028F3D123462A463046BDE8F041E8
:1002A00000F0B8B8000000002D0000002B00000096
:1002B000200000002DE9F0410F460546002028628D
:1002C0002846E968884770B3252805D0D5E901217B
:1002D0009047286A401CF2E7E968284600268847CC
:1002E0006C2804460AD0682C08D04C2C35D06A2CD7
:1002F00031D0742C31D07A2C2FD016E0E968064624
:1003000028468847B042044608D16C2E23D04FF4CB
:1003100080662846E9688847044606E06C2E03D0CC
:100320004FF4807601E01EE04026E4B1A4F14100E4
:10033000192802D8203446F400663A462146284659
:100340002E60FFF723FF60B1012808D0FF1D27F0C2
:1003500007070837B4E78026DBE70026D9E73F1D0B
:10036000AEE72046B2E7286ABDE8F08110B5431C2D
:1003700002E010F8011B71B18107FAD14FF0013290
:1003800002C88C1A8C4314EAC211F9D0C01A0A06AA
:1003900003D0C01E10BDC01A10BD0A0401D0801EBB
:1003A00010BD0902FCD0401E10BD4FF0000200B588
:1003B000134694469646203922BFA0E80C50A0E888
:1003C0000C50B1F12001BFF4F7AF090728BFA0E836
:1003D0000C5048BF0CC05DF804EB890028BF40F802
:1003E000042B08BF704748BF20F8022B11F0804F44
:1003F00018BF00F8012B704770477047704710B561
:1004000000F092FA006810BD10B5044600F08CFAB6
:10041000046010BD2DE9F0470D469946924604460A
:1004200000F124080168880604D5E06921F0100174
:10043000216000E00120A84201DD471B00E0002709
:10044000A1697A1902EB0900081AA0612078C00698
:1004500002D42046AFF30080002608E0D4E9012151
:100460001AF806009047206A401C761C20624E4510
:10047000F4DB2078C0060AD52046AFF3008006E002
:10048000D4E9012130209047206A401C2062381EA8
:10049000A7F10107F4DC07E0D4E9012118F8050011
:1004A0009047206A401C2062281EA5F10105F3DC5C
:1004B0002046AFF300802078000602D50220BDE878
:1004C000F0870120FBE72DE9FF4F0C461E464FF059
:1004D000FF378BB0D2E90001DDF860800A908A46D0
:1004E000C1F30A5505B93D46002108464FF000000A
:1004F000BAF1000F00F4400005DA00EB80004FF481
:10050000400101EA50004FEA9059B9F1010F00DDB6
:10051000B9460A9850EA4A000ED044F61050A5F2A7
:10052000FF3545432F14B8F1000F1ED07542291E28
:100530001EDDC9F100021CE0B8F1010F4FF0000010
:1005400001D0302103E0F24305E02154401CB042C9
:10055000FBDB30460022002121540B99C1F80880B2
:10056000C1E900200FB0BDE8F08FBD1B6D1CDEE7B8
:100570004A4600DA694206A800F060FA06AB93E842
:10058000070003AB83E8070050460A9902F014FE07
:100590008DE80700A0F500501F3800900398002D4B
:1005A0000ADD42F21F014A460844002303A90390D2
:1005B000684603F07DF809E0A0F500504A461F3870
:1005C000002303A90390684603F087F88DE807002D
:1005D0000004000C03D04FF0FF30410800E010464B
:1005E000B8F1000F03D00022009215461EE0751EE0
:1005F00005D400F09DF9303262556D1EF9D5B34631
:100600000122084302D000227F1C04E02078302819
:1006100001D100227F1E002A099784D01DE0112DF0
:1006200007DA00F085F9303262556D1C50EA01029C
:10063000F5D1084302D00098C8B10EE00021681E31
:1006400005E0235C625C63542254401E491C8142D5
:10065000F7DBAB46A81B401E0990002004F80B00F6
:100660000B98099AC0F80880C0E9002B7AE7112698
:100670004FF0000857E72DE9F04F88460446D21D99
:1006800022F0070191B0D1E90001CDE90A0103F0A0
:100690005BF902460B98C00F01D02D2007E02068BF
:1006A000810701D52B2002E0202101EAC000032AA6
:1006B000099001D0072A05DB03464146204600F099
:1006C0007DF90BE12078800601D5E06900E0062085
:1006D000B8F1650F814606D0B8F1660F18D0B8F1B1
:1006E000670F70D131E00020B9F1110F009001DBEC
:1006F000112301E009F101030AAA01A90CA8FFF7DF
:10070000E2FEDDE90C70002609F10105834647E0B1
:1007100001204B4600904FF000470AAA01A90CA8FF
:10072000FFF7D1FEDDE90DB00C995D46002610B94A
:1007300009F101000D18B9EB050003D4C0F1FF3633
:1007400009F10105A5EB09002BE0B9F1010F01DA70
:100750004FF001090020B9F1110F0090484601DD6A
:10076000112300E003460AAA01A90CA8FFF7ABFE7B
:10077000DDE90C704D4600268346207800070AD438
:10078000AB4500DA5D4601A8012D04DD411911F8E1
:10079000011C302907D04F4502DA17F1040F04DAA3
:1007A000012082460FE06D1EEEE7002F02DCED1BFC
:1007B0003E4403E0781CA84200DD7D1CB81B00F11C
:1007C000010A4FF000472078000703D4AA4501DB57
:1007D0004FF0FF3A0021B7F1004F0DF143088DF8BB
:1007E000431024D002202B23002F01DA7F422D2337
:1007F0000A21021EA0F1010000DC5FB197FBF1FCB1
:1008000097FBF1F201FB1C7C17460CF1300C08F849
:1008100001CDEEE7A8F1010003702188090501D59B
:10082000452100E06521A0F1010800F8011C0998AC
:100830000FA9A1EB0807FF1D00B10120411901EB31
:10084000EA70A1693844081A401EA0612078C006E9
:1008500002D42046AFF30080099828B1D4E90121E1
:100860009047206A401C20622078C00622D520468E
:10087000AFF300801EE0002E04DBB34502DD01A8CB
:10088000805D00E03020D4E901219047206A401CBF
:100890002062761CAAF101005FEA000A0AD100F08A
:1008A0003FF8C0680168405CD4E901219047206AA4
:1008B000401C2062281EA5F10105DCDC07E0D4E91C
:1008C000012118F8010B9047206A401C2062381E55
:1008D000A7F10107F3DC2046AFF30080032011B03D
:1008E00041E6000001694A1C02610878704700B5C2
:1008F0008FB0CDE901310021059105497944CDE959
:10090000031011466846FFF7D5FC0FB000BD00008C
:10091000E5FFFFFF0A6802F8010B0A60704700005C
:1009200000487047B8000020004870479800002039
:1009300030B5B0F10A0271F100034FEA900E4EEAB1
:10094000817EB0EB0E0061EB91014FEA101E4EEA82
:10095000017E10EB0E0041EB11114FEA102E4EEA12
:10096000016E10EB0E0041EB11214FEA104E4EEAE2
:10097000014E10EB0E0041EB1141401841F1000116
:100980004FEAD00040EA41704FEAD1014FEA8104BA
:1009900044EA907410EB800544EB01046D1944EBBC
:1009A0000404521BA3414FF0000348BF0A3200D594
:1009B00030BD401C41F1000130BD00002DE9F04187
:1009C0001F46044603260168072A01F4006004DB81
:1009D00008B116A505E016A503E008B115A500E0CD
:1009E00015A521F010002060A069C01EA0610FB104
:1009F000401EA0612046AFF300804FB1D4E9012131
:100A000038469047206A401C2062C01C206206E0E5
:100A1000206AFAE7D4E9012115F8010B9047761E08
:100A2000F8D22046AFF30080BDE8F0814E414E0081
:100A30006E616E00494E4600696E66002DE9F04712
:100A4000814616468AB0354878440DC88DE80D00B9
:100A500032487844801C03AC0DC884E80D0041F690
:100A60009B300844372190FBF1F290FBF1F5A5F1A2
:100A7000800501FB12041B3C02D56442012000E00A
:100A80000020DFF898A080460027FA44AAF1BE0AA9
:100A90000EE0E0070AD03246684607EB4701012323
:100AA0000AEB810102F019FE8DE8070064107F1C3B
:100AB000002CEED1194F7F44AE3F19E0E80715D066
:100AC00007EB04100DF1180A90E80E008AE80E00FA
:100AD000C068F04201D1981908903246012306A956
:100AE00003A802F0FAFD03AB83E807006D10641C55
:100AF000002DE3D14FF0010332466946B8F1000FF3
:100B000003A802D002F0D4FD01E002F0E6FDC9E93D
:100B10000001C9F808200AB0BDE8F08718520000AB
:100B200000487047980000207546FFF7F9FFAE4671
:100B300005006946534620F00700854618B020B5E9
:100B4000FFF756FBBDE820404FF000064FF00007CE
:100B50004FF000084FF0000BAC46ACE8C009ACE821
:100B6000C009ACE8C009ACE8C00921F007018D4616
:100B7000704710B50446AFF300802046BDE8104032
:100B8000FFF721BB4FF0013C50F8042B51F8043B18
:100B90009A4221D1A2EB0C03934313EACC1317D151
:100BA00050F8042B51F8043B9A4215D1A2EB0C03E8
:100BB000934313EACC130BD150F8042B51F8043BA8
:100BC0009A4209D1A2EB0C03934313EACC13DBD076
:100BD0004FF00000704700BFD01A01BAB1FA81F19E
:100BE00001F0180122FA01F0CB40DBB2C0B2C01A0A
:100BF000C1F120012CFA01F3D11A914311EAC3117A
:100C0000E6D1704701491820ABBEFEE7260002007E
:100C100070470000B0B582B0044600200190216802
:100C20008A68D2074BD1886840F00100886040F2A2
:100C30009400C2F2000000684DF68361C4F21B31DB
:100C4000A0FB0101880C01900198A0B10198013826
:100C50000190019878B1019801380190019850B144
:100C6000019801380190019828B10198013801904C
:100C700001980028EAD100F051FD21688968C90770
:100C80001CD1054603E000BF8068C00716D100F004
:100C900045FD411B20680329F6D38168C907F3D1BC
:100CA000A06A40F01000A062E06A40F00100E0623B
:100CB000002084F82400012002B0B0BD002002B062
:100CC000B0BD0000FEE700007047000010B581B025
:100CD0000022009290F82420012A03D10221084624
:100CE00001B010BD4B680122062B80F8242033D8B8
:100CF000D0F800C003EB83035A1F1F23DCF834E055
:100D000003FA02F40B682EEA040403FA02F2224307
:100D1000CCF83420092B03EB430249D9DCF80CE072
:100D20001E3A0724896894402EEA0404914023F077
:100D300001022143102ACCF80C1043D142F20841A1
:100D4000C4F20101A1F10802944543D0816A41F047
:100D500020018162012136E0D0F800C00C2B03EBAA
:100D6000830213D8233A1F23DCF830E003FA02F49D
:100D70000B682EEA040403FA02F22243CCF8302076
:100D8000092B03EB4302C9D812E000BF413A1F23ED
:100D9000DCF82CE003FA02F40B682EEA040403FAF0
:100DA00002F22243CCF82C20092B03EB4302B5D8E6
:100DB000DCF81030072489689440A343914019431C
:100DC000CCF810100021002280F82420084601B041
:100DD00010BD00BF0A681202F4D40A68102B42F456
:100DE00000020A60EED140F29401C2F200010968EB
:100DF0004DF68362C4F21B32A1FB0212910C01EB8F
:100E000081014900009100990029DBD00099013946
:100E1000009100990029D5D00099013900910099DD
:100E20000029CFD000990139009100990029C9D03B
:100E3000009901390091009900294FF00001E5D196
:100E4000C1E700000068C06C70470000002804BFC4
:100E500001207047B0B50446806A28B121688868CF
:100E6000C0070CD115E000BF0020E06284F8240028
:100E7000204600F097F821688868C00709D0886884
:100E800020F00100886000F049FC21688A68D207E0
:100E900026D1A06AC0063AD4A06A41F20212904359
:100EA0000230A062E069D4E9013240EA030C531E2B
:100EB000B3FA83F35D091346B2F5807F18BF2B02A6
:100EC000207D257B01284CEA45002CD135B3A56A4D
:100ED00045F02005A562E56A45F00105E56222E0DE
:100EE000054602E08868C007D3D000F017FC401B1D
:100EF00021680328F6D38868C007F3D0A06A40F0C1
:100F00001000A062E06A40F00100E062A06AA06AFE
:100F100040F01000A0620120B0BD00BFA56903EB46
:100F20004533A3F5C0534D68B2F5807F25F469457C
:100F300043EA05034B608B684FF2FD75CFF6E17510
:100F400003EA050343EA00038B6001D0012A07D1BD
:100F500022690023CFF6F07303EB025201E000BFD9
:100F60000022CB6A23F470031A43CA62896840F6F0
:100F7000FE62CFF61F721140814207D10020E0626D
:100F8000A16A012262F30101A162B0BDA06A40F032
:100F9000100020F00200A062E06A40F00100E06270
:100FA0000120B0BD80B586B0014640F60000C4F215
:100FB0000100096800F5E05291424FF00001CDE9CF
:100FC0000411CDE9021101D006B080BD41F2180133
:100FD000C4F202010A6842F400720A600A6802F46C
:100FE00000720192019A0A6842F004020A600968DC
:100FF00001F0040101910199402102910321039123
:1010000002A900F077FA06B080BD00002DE9F0419A
:1010100082B000270D460446019700F07FFB21684F
:101020008A68D20544D406464868C00503D4C86A15
:1010300010F4700F46D040F29400C2F2000007682E
:1010400042F292480220C1F2492800F023FC2168B4
:1010500044F624130A69B7FBF0F0C2F292431A4235
:1010600006D1CA6844F62413C0F292031A425BD038
:101070000A6912EA080F07D1CA6842F29243C0F225
:1010800049031A4200F0C0800A6949F24923C0F2BC
:1010900024031A424FF0FC0254D1CF681F4208BF0C
:1010A0005422019B02FB00F7BB4250D3C3E000BFB8
:1010B000A06A40F02000A06284F82470012002B0F1
:1010C000BDE8F0810868800700F1B580681C00F079
:1010D000A880FDB90868800770D50868800700F10E
:1010E000AA800868800769D50868800700F1A38096
:1010F0000868800762D50868800700F19C8008684E
:1011000080075BD508688007E4D594E0086880070D
:1011100000F1918000F002FB801B2168A842F5D904
:1011200008688007F2D449E00A6912EA080F4FF014
:10113000290207D1CB6842F29247C0F249073B42ED
:1011400008BF1422019B02FB00F7BB4273D2681C4C
:1011500052D05DBB0198B84230D301980130019064
:101160000198B84267D20198B84227D3019801305C
:1011700001900198B8425ED20198B8421ED30198FE
:10118000013001900198B84255D20198B84215D368
:101190000198013001900198B842DBD34BE000BFC9
:1011A0000198013001900198B84235D200F0B6FAAA
:1011B000801BA842F4D90198B842F1D2A06A40F04D
:1011C0000400A062002084F82400032002B0BDE8DF
:1011D000F08100BF0198013001900198B8422AD2F5
:1011E0000198013001900198B84224D20198013051
:1011F00001900198B8421ED20198013001900198E7
:10120000B842E7D317E000BF5422019B02FB00F76E
:10121000BB429CD30FE000BF21680CE00868800748
:1012200009D40868800706D4086880075CBF08688E
:101230005FEA8070F2D56FF012000860A06A40F497
:101240000070A062886800F46020B0F5602F01D1C2
:10125000207B18B1002002B0BDE8F081A06A20F424
:101260008070A062A06AC004F4D4A06A40F00100BB
:10127000A062002002B0BDE8F081000010B5044675
:1012800090F82400012804BF022010BD012084F83A
:1012900024002046FFF7BEFC20B1002084F8240083
:1012A000012010BD42F2044C2068A16AC4F2010C76
:1012B00040F2013291430CF57F7201F5807190424A
:1012C000A16229D0A16A21F48011A1624168490577
:1012D00004D5A16A012363F30D31A162A16A002341
:1012E000C9044FF0000144BFE16A21F00601E16248
:1012F0006FF0020184F824300160816801F46021FC
:10130000B1F5602F1BD1904214D0816841F4A00147
:101310008160002010BD00BFDCF8001011F4702FB8
:10132000D0D0A16A41F48011A162DCF80010490517
:10133000CFD4D3E7DCF8001011F4702FE5D081682A
:1013400041F480118160002010BD0000B0B504465A
:1013500090F82400012804BF0220B0BD01212068BC
:1013600084F824108168C90709D0816821F001013F
:10137000816000F0D3F921688968C9070ED1214640
:1013800051F8280F41F2011220EA0202002042F037
:1013900001020A60002184F82410B0BD054602E075
:1013A0008068C007EBD000F0B9F9411B2068032921
:1013B000F6D38168C907F3D0A06A214640F0100037
:1013C000A06251F82C2F0120E1E70000014690F8BF
:1013D0002100022816D10868D1E90FC3026822F063
:1013E0000E020260026822F001020260012000FA8F
:1013F00003F2CCF8042081F821000020002281F8BB
:1014000020207047042088630120002281F82020DA
:101410007047000090F82110022923D1026840F2A1
:10142000040C1168C4F2020C21F00E011160136863
:101430002F21C4F202018A4223F00103136015DD5B
:101440003023C4F202039A421CD04423C4F20203A4
:101450009A421BD05823C4F202039A421CD14FF483
:10146000803321E004218163012070470823C4F206
:1014700002039A420ED01C23C4F202039A420BD1FB
:10148000102311E04FF480730EE000BF4FF480533F
:101490000AE000BF012307E00CF168014FF0807300
:1014A0008A4208BF4FF480130121CCF8003080F845
:1014B0002110416B0022002980F8202004BF002069
:1014C000704780B58847002080BD0000B0B5044655
:1014D00000F024F9054640F28C00C2F200000078CA
:1014E000611C18BF044400BF00F018F9401BA04263
:1014F000FAD3B0BD2DE9F04F82B00E68002E00F097
:10150000FD8041F20042C4F20102042340F2004E89
:10151000904208BF03234FF6FF7CC4F2010E0093F4
:1015200000240123C1F2100C4FF0000A4FF0000913
:101530004BE000BF41F20002C4F20102009F904262
:1015400008BF022704F00C030F229A402BEA020284
:1015500007FA03F34FEA9A051A4346F825204E6826
:1015600040F20C45F202DEF8082054BF22EA0802DD
:1015700042EA0802C4F20105CEF808202A68B30244
:1015800054BF22EA080242EA08022A60B303DEF8E6
:10159000042054BF22EA080242EA0802F303CEF80C
:1015A0000420DEF800204FF0010354BF22EA0802B5
:1015B00042EA0802CEF800200E680AF1010A36FA63
:1015C0000AF204F1040400F0998003FA0AFB16EA17
:1015D0000B08F1D04E68664512DC122E56D8DFE8B3
:1015E00006F0350B4D4955555555555555555555DD
:1015F00055555545510000BFD1F80C9046E000BF4D
:101600004FF6FF72C1F2210296420FDC0022C1F2B6
:10161000110296421AD00022C1F21202964215D04F
:101620000022C1F22102964210D02FE00022C1F226
:10163000220296420AD00022C1F23102964205D01F
:101640000022C1F23202964220D100BF8A684AB11C
:10165000012A14BFC0F814B0C0F810B04FF0080948
:1016600014E000BF4FF0040910E000BFCA6802F1A7
:1016700004090BE04FF0000908E000BFCA6802F15E
:10168000080903E0CA6802F10C0900BF02462646B9
:10169000B8F5807F24BF0432203E17680F25B5407F
:1016A00027EA050509FA06F635431560CA79D20618
:1016B0007FF582AF41F21803C4F202031A68AEF557
:1016C0007E7642F001021A601A6802F0010201926D
:1016D000019A2AF0030256F802B040F60002C4F262
:1016E0000102904208D040F60042C4F2010290424A
:1016F0007FF420AF012725E7002723E702B0BDE8EC
:10170000F08F00008068084018BF0120704700007B
:10171000002A08BF090401617047000040F27410FC
:10172000C2F200000068704740F28C0040F2741171
:10173000C2F20000C2F2000100780A68104408609A
:101740007047000080B542F20000C4F20200016858
:1017500041F010010160032000F08CF80F2000F030
:1017600005F800F027F8002080BD000070B540F2B9
:101770008C06C2F2000640F294013278C2F20001F7
:101780004FF47A730968B3FBF2F20446B1FBF2F14D
:10179000084600F083FC0F2C4FF0010508D838B93B
:1017A0004FF0FF3021460022002500F037F874602A
:1017B000284670BD82B041F21800C4F202000168F0
:1017C000022241F001010160016801F00101019173
:1017D0000199416841F080514160406800F08050BB
:1017E000009000980420C4F20100016862F31A61BD
:1017F000016002B070470000002848BF704700F049
:101800001F01012202FA01F11C2202EAD0004EF26D
:101810000012CEF2000281507047000010B54EF663
:101820000C5CCEF2000CDCF80030C3F3022E8EF01C
:101830000704042C28BF0424BEF103034FF0FF3E2D
:101840000EFA04F438BF0023A14399400EFA03F3C3
:101850009A43114300F00F0200F160430901043A7A
:1018600003F564436244002848BF02F10C03197079
:1018700010BD00004EF60C51CEF200010A684FF682
:10188000FF031A4060F30A2242F0806040F0FD70CE
:1018900008607047012821D002280DD0102808D1F7
:1018A00041F20401C4F202010A6851F8040CC001BB
:1018B00034D40020704700BF80B500F0DBF941F25E
:1018C0000401C4F2020109680222C1F3813102EB72
:1018D0004101B0FBF1F0BDE88040704741F20400E7
:1018E000C4F20200C16940F202320A40B2F5817FBF
:1018F00004BF4FF40040704701F44071B1F5407FE0
:1019000018D0B1F5007F1CBF00207047006A49F66F
:101910004041800701EAE070704700BFC2F3834096
:1019200015A3185CD2030DD440F60012C0F23D029C
:10193000504313E050F8040C4FF22441800301EAB5
:10194000E07070470A6810A3C2F340429A5C41F20B
:101950000023C0F27A03B3FBF2F250430968490254
:1019600048BF70474AF6AB214000CAF6AA21A0FB47
:1019700001014808704700BF020304050607080973
:101980000A0B0C0D0E0F1010010200002DE9F041A2
:1019900082B00446007841F21C06C007C4F2020679
:1019A0004AD030685FEAC00808D4306840F0805000
:1019B0003060306800F080500190019847F20007D5
:1019C000C4F200073868C00512D4386840F480704B
:1019D0003860FFF7A3FE05463868C00508D4FFF756
:1019E0009DFE401B6428F7D9032002B0BDE8F081BA
:1019F000706810F4407012D0616801F44071884240
:101A00000DD0706840F24042C4F24222012320F41B
:101A1000407113600023C0071360716026D17068A5
:101A2000616820F440700843B8F1000F706003D47F
:101A3000306820F0805030602068810707D556F864
:101A4000181CA26821F44041114346F8181CC00636
:101A500007D556F8180CE16820F48000084346F8D2
:101A6000180C002002B0BDE8F08100BFFFF756FE61
:101A7000054641F2883700BF70688007CFD4FFF772
:101A80004DFE401BB8424FF00300F5D9EAE70000D5
:101A9000002804BF012070472DE9F04381B042F2D5
:101AA0000008C4F202080446D8F800000D4600F011
:101AB000070088420CD2D8F8000020F00700284325
:101AC000C8F80000D8F8000000F00700A8426CD168
:101AD000206841F204098107C4F2020917D54107C1
:101AE00005D5D9F8001041F4E061C9F800100107EC
:101AF00005D5D9F8001041F46051C9F80010D9F8A3
:101B00000010A26821F0F0011143C9F80010C007CD
:101B100042D1D8F8000000F00700A8420CD9D8F84C
:101B2000000020F007002843C8F80000D8F80000A3
:101B300000F00700A84238D12068410707D5D9F83E
:101B40000010E26821F4E0611143C9F800100007B9
:101B500008D5D9F80000216920F4605040EAC1009E
:101B6000C9F80000D9F8002002F00C00082841F262
:101B70000020C0F27A004DD145F69643C2F383416E
:101B8000C0F60003595CD20338D440F60010C0F20E
:101B90003D0048433EE000BF606859F8041C02283D
:101BA00008D0012826D1890306D4012001B0BDE860
:101BB000F08300BF8901F8D5D9F8001021F00301A6
:101BC0000843C9F80000FFF7A9FD064641F288372F
:101BD000D9F80000616800F00C00B0EB810F98D0DC
:101BE000FFF79CFD801BB842F2D9032001B0BDE88D
:101BF000F08300BF8907D8D5DEE700BFD9F8002001
:101C000045F69443C2F34042C0F600039A5C484351
:101C1000B0FBF2F0D9F8001045F67C42C1F3031195
:101C2000C0F60002515C40F2940220FA01F140F249
:101C30009000C2F200000068C2F200021160FFF7DB
:101C400095FD002001B0BDE8F083000040F2940053
:101C500041F20401C2F20000C4F202010068096806
:101C600045F68C42C1F30221C0F60002515CC84027
:101C70007047000040F2940041F20401C2F20000FB
:101C8000C4F202010068096845F68C42C1F3C22122
:101C9000C0F60002515CC84070470000002804BF35
:101CA000012070472DE9F04182B00446007841F2EE
:101CB0000006C007C4F202060CD0706800F00C00E9
:101CC000042840F081803068800303D560680028D4
:101CD00000F04681207880071BD5706810F00C0F4B
:101CE00009D0706800F00C00082840F08780706808
:101CF000C00300F183803068800703D52069012884
:101D000040F02E813068616920F0F80040EAC1009F
:101D100030602078000713D4207840072CD4E56980
:101D2000002D00F01881706800F00C00082840F0C9
:101D3000A780012D40F00481012002B0BDE8F081B0
:101D4000A069002800F084800020C4F24220012114
:101D5000C0F88014FFF7E2FC054600BF706A8007F8
:101D600000F1B280FFF7DAFC401B0228F6D903200D
:101D700002B0BDE8F08100BFF0695FEAC00808D496
:101D8000F06940F08050F061F06900F08050009000
:101D9000009847F20007C4F200073868C00549D42C
:101DA000386840F480703860FFF7B8FC054600BF23
:101DB0003868C0053ED4FFF7B1FC401B6428F7D952
:101DC000032002B0BDE8F081706800F00C00082824
:101DD00003D17068C0033FF576AF616830680029B1
:101DE00000F00C81B1F5A02F00F00081B1F5803F2B
:101DF00040F01A8140F480301CE100BF20690028C7
:101E000040F20000C4F2422000F08880012101600D
:101E1000FFF784FC054600BF306880073FF572AFCE
:101E2000FFF77CFC401B0228F6D9032002B0BDE876
:101E3000F08100BFE168306A002900F09D8005292B
:101E400000F09280012940F0AF8040F00100B1E045
:101E50000020C4F242200021C0F88014FFF75EFC8D
:101E6000054600BF706A80077FF556AFFFF756FC46
:101E7000401B0228F6D9032002B0BDE8F08100BF64
:101E80000027C4F2422700203866FFF747FC022DE6
:101E900005460DD13068800140F1DE80FFF73EFC41
:101EA000401B02284FF00300F4D902B0BDE8F081D6
:101EB000306880014FD5FFF731FC401B02284FF0FE
:101EC0000300F5D9F1E700BF40F29400C2F2000030
:101ED000006844F6D351C1F26201A0FB0101480A37
:101EE000019000BF00BF0198411E002801913FF4FE
:101EF00013AF00BF0198411E002801913FF40CAFC1
:101F000000BF0198411E002801913FF405AF00BFBA
:101F10000198411E00280191E4D1FDE600210160F5
:101F2000FFF7FCFB054600BF306880077FF5F1AE88
:101F3000FFF7F4FB401B02284FF00300F4D9B4E78D
:101F40007068216A00F480328A4209D1616A00F423
:101F50007010884204D1002002B0BDE8F08100BFBB
:101F6000012002B0BDE8F08140F004003062306A28
:101F700040F001001EE000BF20F001003062306A36
:101F800020F004003062FFF7C9FB054641F28837B4
:101F9000306A800720D5FFF7C1FB401BB8424FF0E5
:101FA0000300F5D981E700BF20F001003062306AFC
:101FB00020F004003062FFF7B1FB054641F288379C
:101FC000306A800708D4FFF7A9FB401BB842F7D955
:101FD000032002B0BDE8F081B8F1000F3FF59FAEDD
:101FE000F06920F08050F06199E600BF40F4802055
:101FF0003060306840F480301CE000BF20F4803056
:102000003060306820F480203060FFF787FB0546A1
:10201000306880037FF55EAEFFF780FB401B6428CD
:102020004FF00300F4D940E720F48030306030688E
:1020300020F480203060FFF771FB05463068800394
:102040003FF548AEFFF76AFB401B6428F6D9032032
:1020500002B0BDE8F08100BF206AB0F5803F05D135
:102060007168A26821F40031114371607168626A7D
:1020700021F4741111430843706001203866FFF7A2
:102080004DFB0446306880013FF565AFFFF746FB26
:10209000001B02284FF00300F4D906E7411E002080
:1020A000B0EB116F1CBF012070474EF21002CEF250
:1020B000000251604EF62351CEF20001F0230B7066
:1020C0000721906011607047704700007047000062
:1020D000B0B582B001680A68CC684B6902F02F0580
:1020E000202D04F0200505D125B102B0BDE8B04097
:1020F00000F070BD5FEA027C1EBF03F0010E04F425
:10210000907313EB0E0341D1036BD50618D5012B49
:1021100016D114F0100313D0002201920A68019224
:102120004A680192019A496949064BD4818DC28D52
:10213000C38D002B18BF914240F0F48102B0B0BDB6
:1021400013062DD514F080032AD090F84120212ABF
:10215000F4D18268B2F5805F03D10269002A00F0F1
:102160006782026A531C036212784A60C28C013A89
:102170001304C284E2D1C86820F08000C860C86837
:1021800040F04000C86002B0B0BD00BFD30718BF28
:1021900014F4807340F0D080530700F1D380D8E06E
:1021A0005206CBD514F04002C8D0CA6822F04002D3
:1021B000CA60202180F8411002B0BDE8B04000F0B4
:1021C00035BC00BFC16B0A68526893B2002BB5D012
:1021D000858DAB42B2D2C2858969202900F0A180E9
:1021E000016851E8031F026821F4807142E803137B
:1021F000DBB1016851E8031F026821F4807142E8F5
:10220000031393B1016851E8031F026821F4807140
:1022100042E803134BB1016851E8031F026821F43F
:10222000807142E80313002BDAD1016851E8051FE1
:10223000026821F0010142E80513C3B3016851E8C7
:10224000051F026821F0010142E805137BB3016814
:1022500051E8051F026821F0010142E8051333B37C
:10226000016851E8051F026821F0010142E80513E9
:10227000002BDAD11BE000BF016851E8051F02689E
:1022800021F0400142E80513DBB1016851E8051F68
:10229000026821F0400142E8051393B1016851E85A
:1022A000051F026821F0400142E805134BB10168A7
:1022B00051E8051F026821F0400142E80513002B98
:1022C000DAD1202180F8421000210163016851E831
:1022D000031F026821F0100142E80313DBB101681B
:1022E00051E8031F026821F0100142E8031393B183
:1022F000016851E8031F026821F0100142E803134E
:102300004BB1016851E8031F026821F0100142E857
:102310000313002BDAD1C16B04460846FFF756F8C9
:10232000204602214163818DC28D891A89B202B093
:10233000BDE8B040FFF7C8BE436C43F001034364FF
:10234000530706D5BEF1000F03D0436C43F00203E0
:102350004364930706D5BEF1000F03D0436C43F0EE
:1023600004034364BCF1000F06D55EEA050303D005
:10237000436C43F008034364436C002B3FF4DEAE30
:10238000920605D525B1044600F024FC21682046BC
:102390004969426C01F0400102F00802891800F01E
:1023A000B98000BF016851E8031F026821F49071F1
:1023B00042E80313BBB3016851E8031F026821F42C
:1023C000907142E8031373B3016851E8031F026878
:1023D00021F4907142E803132BB3016851E8031F05
:1023E000026821F4907142E80313002BDAD11AE05D
:1023F000016851E8051F026821F0010142E8051358
:10240000DBB1016851E8051F026821F0010142E8D3
:10241000051393B1016851E8051F026821F001011D
:1024200042E805134BB1016851E8051F026821F02D
:10243000010142E80513002BDAD1016B012924D1F7
:10244000016851E8031F026821F0100142E80313FC
:10245000DBB1016851E8031F026821F0100142E876
:10246000031393B1016851E8031F026821F01001C2
:1024700042E803134BB1016851E8031F026821F0E1
:10248000100142E80313002BDAD1202180F842101A
:102490000021016301684969490640F1C380016870
:1024A00051E8051F026821F0400142E80513DBB145
:1024B000016851E8051F026821F0400142E8051358
:1024C00093B1016851E8051F026821F0400142E81C
:1024D00005134BB1016851E8051F026821F0400166
:1024E00042E80513002BDAD1C16B002900F09A8075
:1024F00042F6C932C0F60002044608464A63FEF7B7
:1025000089FF00283FF41AAEE06B416B02B0BDE8D2
:10251000B04008470446FFF7D9FD0020606402B0D0
:10252000B0BD00BF891A00BF026852E8032F0368DC
:1025300022F4907243E80325BDB3026852E8032FEA
:10254000036822F4907243E8032575B3026852E8E9
:10255000032F036822F4907243E803252DB3026829
:1025600052E8032F036822F4907243E80325002DFC
:10257000DAD11AE0026852E8052F036822F001025E
:1025800043E80525DDB1026852E8052F036822F013
:10259000010243E8052595B1026852E8052F03685A
:1025A00022F0010243E805254DB1026852E8052FEB
:1025B000036822F0010243E80525002DDAD120222C
:1025C00080F8422000220263026852E8032F036869
:1025D00022F0100243E80325DDB1026852E8032F20
:1025E000036822F0100243E8032595B1026852E81F
:1025F000032F036822F0100243E803254DB102685F
:1026000052E8032F036822F0100243E80325002D4F
:10261000DAD1022289B2426302B0BDE8B040FFF7CE
:1026200053BD00BF02B0BDE8B040FFF74FBD00BFD3
:10263000026A32F8023B6FF35F234B60026295E55A
:10264000002804BF0120704710B5044690F84100EF
:1026500028B9002084F84000204600F063F82420C8
:1026600084F841002068D4E90212C36823F40053BF
:10267000C360036923F440531A430261D4E904237D
:102680001143C268194341F20C639A431143C1607C
:102690004169A26921F44071114343F60002C4F27A
:1026A00001029042416103D0FFF7D0FA02E000BF7F
:1026B000FFF7E0FAD4E90023192148439900B0FB61
:1026C000F1F048F21F5CC5F2EB1CA0FB0C314FF699
:1026D0009C734909C0F6FF7301FB0300322303EB2F
:1026E0000010A0FB0C03F02000EA531000EB0110D7
:1026F000C3F34311084490601069202120F49040F6
:102700001061506920F02A005061D06840F40050F8
:10271000D0600020606484F8411084F84210606347
:1027200010BD000070B586B040F60004C4F201048C
:10273000006804F54051002688420596CDE90366FD
:10274000029601D006B070BD41F21800C4F202003A
:10275000016802AD41F480410160016801F48041EB
:1027600001910199016841F0040101600068294666
:1027700000F00400019001984FF4007002900220D4
:102780000390032005902046FEF7B4FE4FF48060CE
:10279000CDE90206204629460496FEF7ABFE252029
:1027A00001210022FFF73AF82520FFF725F806B0AF
:1027B00070BD0000704700002DE9F04381B0044671
:1027C00090F84100202809D1884600294FF00100E7
:1027D00018BF002A06D101B0BDE8F083022001B085
:1027E000BDE8F0830020606421201D4684F841008C
:1027F0001646FEF793FFA684E684A1680646B1F567
:10280000805F03D12069002800F0948047464FF094
:102810000008E18C2068002900F0928005F1010990
:102820000BE000BF47B317F8011B4160E18C013991
:10283000E184E18C002900F0838001680906F1D46D
:10284000B9F1000F0AD0EDB1FEF768FF801BA84276
:1028500018D8206801680906F6D5E3E7016809067B
:10286000E0D4016809065CBF01685FEA0161D9D460
:1028700001680906F2D5D5E738F8021B00276FF387
:102880005F21D2E7206850E8030F216820F4D07060
:1028900041E80302BAB3206850E8030F216820F42E
:1028A000D07041E8030272B3206850E8030F21683A
:1028B00020F4D07041E803022AB3206850E8030FE7
:1028C000216820F4D07041E80302002ADAD11AE02E
:1028D000206850E8050F216820F0010041E805025A
:1028E000DAB1206850E8050F216820F0010041E8C6
:1028F000050292B1206850E8050F216820F0010020
:1029000041E805024AB1206850E8050F216820F02F
:10291000010041E80502002ADAD1202084F84100B4
:1029200084F84200002084F84000032001B0BDE894
:10293000F08300BF0027E18C206800297FF46EAF90
:10294000016849060FD4F5B1691C17D10168490621
:1029500009D4016849065CBF01685FEA416102D49D
:1029600001684906F2D5202084F84100002001B01A
:10297000BDE8F083206800684006F4D4FEF7CEFE80
:10298000801BA842F6D9206850E8030F216820F484
:10299000D07041E80302EAB3206850E8030F2168D1
:1029A00020F4D07041E80302A2B3206850E8030F7E
:1029B000216820F4D07041E803025AB3206850E83F
:1029C000030F216820F4D07041E80302002ADAD115
:1029D00020E000BF206850E8050F216820F00100CA
:1029E00041E80502002A98D0206850E8050F2168C8
:1029F00020F0010041E80502002A3FF48EAF206874
:102A000050E8050F216820F0010041E80502002A86
:102A10003FF483AF206850E8050F216820F00100E3
:102A200041E80502002AD5D177E700007047000091
:102A3000FEE700002DE9F04186B0002641F21800C3
:102A4000CDE90466CDE90266C4F20200016840F6F1
:102A5000004441F0040101600168C4F2010401F086
:102A6000040101910199016802AD41F00801016082
:102A700001684FF0010801F0080101910199016816
:102A8000032741F0100101600068294600F01000A2
:102A9000019001984FF4007002902046CDE9038622
:102AA0000597FEF727FD8020CDE90208204629463C
:102AB000CDE90467FEF71EFD4FF48070CDE90208F2
:102AC00020462946CDE90467FEF714FD20464FF461
:102AD00080710022FEF71CFE4020CDE9020820464E
:102AE0002946CDE90467FEF705FD2020CDE902085F
:102AF00020462946CDE90467FEF7FCFC1020CDE90D
:102B0000020820462946CDE90467FEF7F3FC0820B9
:102B1000CDE9020820462946CDE90467FEF7EAFC24
:102B2000332000F0DFF80A20FEF7D0FC322000F05E
:102B3000D9F80A20FEF7CAFC282000F0D3F80A20B2
:102B4000FEF7C4FC012000F0CDF80A20FEF7BEFC21
:102B50000C2000F0C7F80A20FEF7B8FC062000F0B1
:102B6000C1F80A20FEF7B2FC06B0BDE8F081000013
:102B700000F07F0282F0C002002908BF40F080020E
:102B8000104600F0AFB8000070B504460078002889
:102B900008BF70BD00260025A05D00F0FFF80135DC
:102BA0002046EEB2FDF7E2FBB042F5D870BD000062
:102BB000FEE70000FEE700007047000070470000DD
:102BC000FEF7B2BD70470000406A0021C185C18494
:102BD000FFF77CBA81B090F84210222921D1836896
:102BE0000246B3F5805F09D152F8281F52F8183C0D
:102BF000002B63D003685B680AE000BF52F8281F0F
:102C000013B90369002BF5D003685B6803F07F03F9
:102C10000B70116801311160C18D01390A04C18541
:102C200002D001B0704700BF0168CA6822F02002DC
:102C3000CA60CA6822F48072CA604A6922F001023E
:102C40004A61202180F8421000214163026B012A71
:102C50003CD10163016851E8031F026821F01001B3
:102C600042E80313DBB1016851E8031F026821F059
:102C7000100142E8031393B1016851E8031F026891
:102C800021F0100142E803134BB1016851E8031F22
:102C9000026821F0100142E80313002BDAD1016829
:102CA0000A68D20606D5002200920A680092496896
:102CB00000910099818D01B0FFF706BA0268526851
:102CC0006FF35F2221F8022B8162A5E701B0FFF7C5
:102CD00071BD000040F22C10C2F20000FFF7F8B9FD
:102CE000FEE7000070B540F60044C4F2010405465A
:102CF00020464FF400710022FEF70AFD40F2000664
:102D0000C2F20006B0683188C5F30012FEF700FD7C
:102D1000F0687188C5F34012FEF7FAFC3069B1889B
:102D2000C5F38012FEF7F4FC7069F188EA09FEF73A
:102D3000EFFC204680210122FEF7EAFC0120FEF78D
:102D4000C5FB204680210022FEF7E2FCB0683188F6
:102D500005F00102FEF7DCFCF0687188C5F3400263
:102D6000FEF7D6FC3069B188C5F38002FEF7D0FCCF
:102D70007069F188C5F3C002FEF7CAFC20468021C5
:102D80000122FEF7C5FC0120FEF7A0FB20468021B2
:102D90000022BDE87040FEF7BBBC000070B540F6F5
:102DA0000044C4F20104054620464FF4007101229C
:102DB000FEF7AEFC40F20006C2F20006B0683188B1
:102DC000C5F30012FEF7A4FCF0687188C5F3401249
:102DD000FEF79EFC3069B188C5F38012FEF798FCBF
:102DE0007069F188EA09FEF793FC204680210122F0
:102DF000FEF78EFC0120FEF769FB204680210022B1
:102E0000FEF786FCB068318805F00102FEF780FC11
:102E1000F0687188C5F34002FEF77AFC3069B1882A
:102E2000C5F38002FEF774FC7069F188C5F3C00237
:102E3000FEF76EFC204680210122FEF769FC01208E
:102E4000FEF744FB204680210022BDE87040FEF7DB
:102E50005FBC0000A2B0FEF775FCFFF7EBFD09AC0C
:102E6000201D2421FDF7A1FA0220099001200D90D8
:102E7000102000250E9020460395CDE901551095B0
:102E8000FEF70CFF20B1EFF3108072B6FEE700BF33
:102E90000F20CDE9040504A80021CDE906550895C9
:102EA000FEF7F6FD20B1EFF3108072B6FEE700BF2B
:102EB00002260025684600960295FEF767FD28B1B8
:102EC000EFF3108072B600BFFEE700BF41F21800BA
:102ED000CDE90B55CDE90955C4F20200016840F671
:102EE000000441F0200101600168C4F2010401F016
:102EF000200104910499016841F004010160006817
:102F000009A900F004000490049820460996FEF7F1
:102F1000F1FA40F2F808C2F2000804F5E051404628
:102F200040F8041F057305754FF46021C0E9015591
:102F30000125C1610561FDF789FF28B1EFF310801C
:102F400072B600BFFEE700BF0620CDE9090508F113
:102F50000405002609A928460B96FDF7B7FE28B1FF
:102F6000EFF3108072B600BFFEE700BF04F54051DA
:102F7000404640F8341F4FF4E1310C22C0E90116FD
:102F8000C0E90366C0E90526C661FFF759FB28B111
:102F9000EFF3108072B600BFFEE700BF40F21806E4
:102FA00008F13407C2F200063846314608224FF0D5
:102FB000FF33FFF701FC06F1090138460D224FF0FF
:102FC000FF33FFF7F9FB06F1270138461E224FF0C9
:102FD000FF33FFF7F1FB45F6A64969A7C0F60009E4
:102FE0000DF1240A47E000BF414641F8040B0846B2
:102FF000FEF7ACF94FF47A70FEF768FAC3465BF857
:10300000340B02F06DFA02460B4650464946FDF776
:1030100001F906F1460158462B224FF0FF33FFF726
:10302000CBFB4FF4FA70FEF751FA06F11701584640
:103030000F224FF0FF33FFF7BFFB4FF4FA70FEF79C
:1030400045FA5846514663224FF0FF33FFF7B4FB71
:103050004FF47A70FEF73AFA5846514663224FF021
:10306000FF33FFF7A9FB4FF4FA70FEF72FFA4FF486
:103070007A70FEF72BFA20460221FEF743FB012867
:1030800011D100200121FFF773FD39A0FFF77CFD6E
:1030900000200121FFF76CFD3846FFF775FD4FF466
:1030A0007A70FEF713FA20460221FEF72BFB88B94F
:1030B00000200121FFF75CFD36A0FFF765FD002031
:1030C0000121FFF755FD38A0FFF75EFD4FF47A7040
:1030D000FEF7FCF92846FEF7D1F828466421FDF7F3
:1030E00095FF00287FF480AF2846FDF7ABFE02F085
:1030F00047FB40F60121C3F6A02102F055FB014633
:103100000020C4F2A00002F079FA0021CBF6807111
:1031100002F012FA0021C4F2201102F045FB4AF637
:103120001461C4F2070102F069FA02F0D9F900F063
:1031300045FE48F21F5241F6B863C5F2EB12CBF6DA
:10314000F57301F011FC43F6715247F2A303CDF27F
:103150000A72CBF6E57301F0C3FC0B460021024670
:103160000020C4F2240100F09BFE01F0CBFB3BE702
:10317000202020202020202020202020202000008F
:103180004761733A2042696E68207468756F6E6794
:1031900000000000202020202020202020202020AF
:1031A00020202020000000004761733A204E677500
:1031B00079206869656D00005FEA400C08BF91F0F6
:1031C000000F4FEA8C234FEAC12243EA51514FEAE4
:1031D0001C5018BF00F5F0404FEA300018BF41F016
:1031E00000415FEA6C5C00F02980BCF1FF3F08BF42
:1031F00040F080407047130C06BF12044FF0100CD3
:103200004FF0000C130E04BF12020CF1080C130F48
:1032100004BF12010CF1040C930F04BF92000CF1D7
:10322000020CD30F04BF52000CF1010C11464FF0F9
:103230000002A0F11F00A0EB0C00704711F0004F3E
:1032400008BF704731F000413FF4D5AF0B0C06BF0B
:1032500009044FF0100C4FF0000C0B0E04BF0902D4
:103260000CF1080C0B0F04BF09010CF1040C8B0FBF
:1032700004BF89000CF1020CCB0F04BF49000CF114
:10328000010CCCF1200322FA03F341EA030102FA14
:103290000CF2A0EB0C0000F10100704723F07F4717
:1032A00020F07F4C80EA030000F00040ACEB070305
:1032B00003F57C5303F1FF032DE9804909B44FEA7C
:1032C000144324EA03484FEA154B25EA0B4E0FF24C
:1032D000042606EB13273E7803FB0667C7F50007B5
:1032E00007FB06F64FEAD64606F102064FEA5437C8
:1032F00007FB066CCCF1005C4FEA1C472CEA074C3C
:103300000CFB06F507FB06F404EB15464FEA961690
:1033100049085FEA320234BF00204FF000404FEA14
:10332000D13706FB07FC4FEA1C4C0CFB0BF7D21BFA
:1033300003FB0CF761EB07010CFB0EF7B0EB07404A
:1033400072EB17420CFB08F734BFA2EB0742B2EB5B
:10335000074261EB17414FEA0C444FEA910706FB25
:1033600007FC4FEA1C4C0CFB0BF7B0EBC74072EBB1
:10337000573203FB0CF734BFA2EBC742B2EBC74294
:1033800061EB57310CFB0EF7B0EBC70072EB5772D5
:103390000CFB08F734BFA2EBC702B2EBC70261EB2C
:1033A00057714FEA816141EA92114FEA826242EA23
:1033B00090124FEA806004EBCC04039F4FEAD137B0
:1033C00006FB07FC4FEA1C4C0CFB0BF7D21B03FB64
:1033D0000CF761EB07010CFB0EF7B0EB074072EB4B
:1033E00017420CFB08F734BFA2EB0742B2EB0742CF
:1033F00061EB17414FEA8C5504EB9C244FEA91078F
:1034000006FB07FC4FEA1C4C0CFB0BF7B0EBC7406C
:1034100072EB573203FB0CF734BFA2EBC742B2EB9F
:10342000C74261EB57310CFB0EF7B0EBC70072EBF4
:1034300057720CFB08F734BFA2EBC702B2EBC7020E
:1034400061EB57714FEA816141EA92114FEA826262
:1034500042EA90124FEA806015EB4C2544F10004DB
:103460004FEAD13706FB07FC4FEA1C4C0CFB0BF76D
:10347000D21B03FB0CF761EB07010CFB0EF7B0EB63
:10348000074072EB17420CFB08F734BFA2EB074270
:10349000B2EB074261EB17414FEA813141EA9241B9
:1034A0004FEA823242EA90424FEA80304FEA0C768D
:1034B00015EB1C1544F1000448EA03434EEA0B489F
:1034C0004FF0000EB2EB080C71EB030724BF62460D
:1034D00039464EEB0E0E4FF0000B00185241494199
:1034E0004BEB0B0BB2EB080C71EB03077BF1000B02
:1034F00024BF624639464EEB0E0E4FF0000B00180B
:10350000524149414BEB0B0BB2EB080C71EB03073B
:103510007BF1000B24BF624639464EEB0E0E51EA9A
:10352000020718BF46F0010616EB0E7655F10002B1
:1035300054F1000103D5BDE88901BDE80088BDE86C
:103540008901BDE80048B619524141EB0101A3F1E0
:103550000103704780807F7E7D7C7B7A79787776E7
:1035600076757473727171706F6E6E6D6C6C6B6A60
:103570006A696868676666656464636362616160FE
:10358000605F5F5E5E5D5D5C5C5B5B5A5A5959587B
:1035900058575756565555555454535352525251E5
:1035A000515050504F4F4F4E4E4D4D4D4C4C4C4B3B
:1035B0004B4B4A4A4A494949484848474747474682
:1035C00046464545454444444443434343424242BE
:1035D000424141419C46002B30D477002BD04FEA2A
:1035E00037071CB503B44FF010004FF01001BAF1CB
:1035F000000F06D0BCF1000FDCBF40F0080040F027
:1036000008014FF000000FBCBDE810400BF1010BAA
:10361000BBF1010F08BF5FEA170722BF12F10102D9
:1036200011F101014FF0004143F1000300F00040AF
:1036300043EA00007047F9D35708D0E746EA064648
:103640004FEA164613F1400F1FDD13F1200FDFBFC5
:1036500016430A46002120335B42BED0C3F1200747
:1036600046EA06464FEA164602FA07F746EA070612
:1036700022FA03F2C3F1200701FA07F742EA070230
:1036800021FA03F14FF00003A7E746EA020646EAF3
:1036900006464FEA164646EA0106BCBF46EA06461B
:1036A000360C4FF000034FF000024FF0000194E79A
:1036B0002DE9804C70B49A46934691E8380007C8CB
:1036C00031EA400C48BF34EA430C03D5FFF7E6FD6E
:1036D000FFF780FFF0BCBDE8008C2DE9804C70B492
:1036E0009A46934691E8380007C810F0804F08BF0B
:1036F00013F0804F03D100F005F8FFF76BFFF0BC2B
:10370000BDE8008C20F07F4723F07F4C80EA030067
:1037100000F0004007EB0C03A3F57C53A3F1FE037C
:1037200092F0000F00F0B38095F0000F00F077806A
:103730002DE901494FEA114021EA00484FEA1446B9
:1037400024EA064700FB06FC08FB06F607FB08F820
:1037500018EB06484CEB164C00FB07F718EB074834
:103760004CEB17404FEA124B22EA0B4E4FEA15463C
:1037700025EA06470BFB06FC0EFB06F607FB0EFED2
:103780001EEB064E4CEB164C0BFB07F71EEB074EE1
:103790004CEB174B18EB0B0840F1000018EB0E0B2D
:1037A00058EB000840F100008F1A4FF000014FF075
:1037B00000063CBFC943661B14BFB5EB040C0021D7
:1037C0003CBFC943F61B4FEA174427EA04454FEABA
:1037D0001C472CEA074C04FB076205FB07F70CFBB0
:1037E00005F616EB074642EB174204FB0CFC16EB02
:1037F0000C4642EB1C421BEB060658EB0202414111
:103800004EEA8E0E46EA9E0601D5BDE80189B6193C
:10381000524141EB0101A3F10103BDE801894FEAE7
:10382000144524EA05464FEA114721EA074C05FBF7
:1038300007F406FB07F70CFB06F111EB074144EB1D
:10384000174405FB0CFC11EB0C4144EB1C444FEA04
:10385000124722EA074C05FB07F206FB07F70CFBB1
:1038600006F616EB074642EB174205FB0CFC16EB7F
:103870000C4642EB1C456A1854F1000148BF7047E2
:10388000B619524141EB0101A3F10103704795F0D4
:10389000000F37D04FEA114221EA02464FEA14479F
:1038A00024EA074C02FB07F106FB07F70CFB06F4C2
:1038B00014EB074441EB174102FB0CFC14EB0C44E6
:1038C00041EB1C414FEA154725EA074C02FB07F57F
:1038D00006FB07F70CFB06F616EB074645EB17450C
:1038E00002FB0CFC16EB0C4645EB1C42121951F185
:1038F000000148BF7047B619524141EB0101A3F1E5
:10390000010370474FEA144524EA05464FEA114780
:1039100021EA074C05FB07F106FB07F70CFB06F253
:1039200012EB074241EB174105FB0CFC12EB0C427A
:1039300051EB1C414FF0000648BF7047921841EB15
:103940000101A3F101037047490050EAC12018BFEB
:1039500004204A0D18BF40F0010040F2FF72B2EBA4
:10396000515F08BF40F00200012808BF05207047E2
:103970002DE9F0414F1E00EBC7010446D1E90001DB
:1039800015461E4637F006020DD02A46334601F092
:1039900093FA7F1E04EBC703D3E9002300F0E4FF92
:1039A00037F00602F1D1022F25D0042F13D0062FB5
:1039B00018BFBDE8F0812A46334601F07DFAD4E90C
:1039C0000A2300F0D1FF2A46334601F075FAD4E904
:1039D000082300F0C9FF2A46334601F06DFAD4E906
:1039E000062300F0C1FF2A46334601F065FAD4E908
:1039F000042300F0B9FF2A46334601F05DFAD4E90A
:103A0000022300F0B1FF2A46334601F055FAD4E90B
:103A10000023BDE8F04100F0A7BF000000221346DC
:103A20001046014901F05CB80000F03F012202F0AD
:103A300030B800F099BF002213461046114601F03D
:103A40004FB840F2013200204FF0E04102F021B8BF
:103A5000024A0020110702F01CB8000001FDFFFF20
:103A60002DE9F04DC84A002490B0914205DA21F0CA
:103A70000043934201D805D120B110B0BDE8F04D0C
:103A8000FFF7D4BFB1F5801F1BDA53EA000209D05B
:103A9000002911DA0120FCF7B7FC10B0BDE8F04DA9
:103AA000FFF7C9BF0220FCF7AFFCFFF7B7FF10B06C
:103AB00081F00041BDE8F08D6FF03504362201F051
:103AC000E8FF04EB2152C1F31308B049A2F2FF331F
:103AD000414401F4801282F07F6103EB225281F0B5
:103AE0004051009241EA08010022A94B01F00AFC72
:103AF000044608F10200A74EC0F313000D467E44B1
:103B0000032867D2D6E90023204601F045F91ED1EB
:103B10000098002802BFD6E9000110B0BDE8F08D82
:103B200001F076F907460C469B4A9C4B01F0C4F91C
:103B300006460D469A4A9B4B3846214601F0BCF991
:103B400010B032462B46BDE8F04D00F00DBF4FF0EF
:103B50005532954B2046294601F0AEF90022934B91
:103B600001F0DEFA06460F4622462B46104619465D
:103B700001F0A2F932463B4601F09EF90646009854
:103B80000F46F0B101F044F980468A46824A834BE1
:103B900001F092F932463B4601F0C2FA22462B462A
:103BA00001F0B0FB05460C467D4A7E4B404651462F
:103BB00001F082F910B02A462346BDE8F04D01F02D
:103BC000A1BB0B4610B0324620462946BDE8F04D59
:103BD00001F098BB00224FF08043204600F0C4FE65
:103BE00002460B462046294600F07AFF06460F465D
:103BF000009801F00DF9CDE9040132463B4610462C
:103C0000394601F059F90C9069480C9A40440190EA
:103C100009910B46104601F04FF98246024665486D
:103C20008B46C8F151080B4608F5D7280321784484
:103C3000FFF79EFE52465B4601F03EF90A905E4851
:103C40000D9152465B4604217844FFF791FE099B93
:103C50000C9A01F031F9844601980D9B40EA08085E
:103C600060460A9A00F080FE83460891B8F1000F82
:103C70004EDD4FF0FF322046294601F00AFF224672
:103C80002B4601F019F9804600988A4660B3DDE9B9
:103C90000401414A414B01F00FF9099100905A4645
:103CA00040465146089B00F05FFE32463B4601F01D
:103CB00003F9099B009A00F057FE4246534601F073
:103CC0002FFA22462B4601F01DFB04460D46DDE986
:103CD0000401334A334B01F0EFF810B022462B4673
:103CE000BDE8F04D01F00EBB5A464046089B00F07F
:103CF0003BFE32463B4601F0DFF84246534601F0B8
:103D00000FFA10B022462B46BDE8F04D01F008BA7C
:103D1000009840B3DDE904011F4A204B01F0CCF8C4
:103D200080468A465A4620462946089B01F0EAFA10
:103D300032463B4601F0C0F84246534601F0E2FAF3
:103D400022462B4601F0DEFA04460D46DDE9040169
:103D5000134A144B01F0B0F810B022462B46BDE8D0
:103D6000F04D01F0CFBA0B465A462046294601F0E5
:103D7000C9FA32463B4601F09FF810B022462B4666
:103D8000BDE8F04D01F0CCB90000F07F645F0900A0
:103D90000000F03FDE200000763C7935EF39EA3D47
:103DA0000000E0FE422EE63F5555D53F0000E03FC3
:103DB00086EBF9FF761F0000741F00002DE9F0412B
:103DC000044630480025814205DA21F00042824253
:103DD00001D805D124B12046BDE8F041FFF726BE49
:103DE000B1F5801F1BDA52EA040008D000290FDA6F
:103DF0000120FCF709FBBDE8F041FFF71CBE0220E3
:103E0000FCF702FBFFF70AFE81F00041BDE8F081FC
:103E10006FF035053622204601F03BFE044605EBE7
:103E20002150A0F2FF32D00F40F2FF331B1A0D4693
:103E300063F31F55104400F0EBFF06460F4629467A
:103E40002046FFF70DFE104A104B01F035F80446EE
:103E50000D460F4A0F4B3046394601F02DF82246E9
:103E60002B4600F081FD05460C460B4A0B4B3046B5
:103E7000394601F021F82A462346BDE8F04100F01A
:103E800073BD00000000F07F0EE526157BCBDB3F05
:103E9000362BF111F3FE593D00609F501344D33F80
:103EA0002DE9F04D1D460C4694B0174621F0004117
:103EB00023F00043002814BF4FF0010C4FF0000C1A
:103EC0000CEB440CFB4A0CEB02064FEA620C664515
:103ED0002BD33E0018BF012606EB45061644F64AD2
:103EE000964222D3F54A53EA070C02D0944205D1F8
:103EF00048B914B000201146BDE8F08D002808BF75
:103F00004FF0000C01D04FF0010C0CEB440212F505
:103F1000001F0AD8002F14BF4FF0010C4FF0000C07
:103F20000CEB450212F5001F07D914B03A462B4698
:103F30002146BDE8F04DFFF77CBD0022DFF880A3ED
:103F4000002CB8BF534526DADFF878C36345A8BF15
:103F5000022220DADFF864C39C451CDCDFF868C36A
:103F60000CEB235CBCF1140F08DDCCF1340627FA0E
:103F700006FC0CFA06F6BE420DD108E05FB9CCF1A2
:103F8000140623FA06FC0CFA06F69E4203D10CF046
:103F90000102C2F1020251EA000C19D1002D17DA18
:103FA000002C18BF022A01D0012A07D00220FCF7FA
:103FB0002BFA14B0BDE8F04DFFF730BD0220FCF73E
:103FC00023FAFFF72BFD14B081F00041BDE8F08D1E
:103FD000B7F1000C6CD1534525D104F1804212F5A4
:103FE000801201BF00280020B44914B008BFBDE80A
:103FF000F08DB248884207DC002DA1BF60462946FB
:1040000014B0BDE8F08D07E0002DBFBF604685F01D
:10401000004114B0BDE8F08DAC497944D1E900010C
:1040200014B0BDE8F08DDFF894C2634525D1002DB2
:104030001FDA19B1514512D1D8B909E0002840F072
:10404000F6829F4A214614B062F31E01BDE8F08D4E
:104050000020214614B060F31E01BDE8F08D08DA9F
:1040600014B02346BDE8F04D02460020614600F042
:1040700037BD14B02146BDE8F08D514518DAB5F1D1
:10408000804F0DD0A5F1005CBCF1FF5C10D1B4F104
:10409000000C0DDB14B06146BDE8F04D00F0F6BB3E
:1040A000234614B00246BDE8F04D194600F004BFA7
:1040B000060024F0004C3BD1D9B1514533D1002C3E
:1040C00006DD002DA1BF0020514614B0BDE8F08DE3
:1040D000002C01DD002D1BDB002C13DA002D11DB81
:1040E000012A4FF0000014BF7549794914B0BDE8AA
:1040F000F08D022A18BF002C0AD0012A08D1002C0A
:1041000006DA0AE0002CB8BF002D11DA012A04D02B
:10411000002014B00146BDE8F08D14B000204FF02F
:104120000041BDE8F08DA1F14050B0F17F601AD0A0
:10413000012000EBE47050EA020421D05F4C521ED3
:104140004FF0000B104304BF4FF0000B614C62486E
:1041500083427DDD614A6248934229DD884217DB54
:10416000002D2FDB41E0002C00DA4AB1022A0CBFFF
:1041700001204FF0FF3014B0BDE8F04D00F048BE14
:104180000120FCF741F914B0BDE8F04DFFF753BC36
:104190004A4A8A420CDC002D14DC0220FCF734F978
:1041A000FFF756FC61F31E0414B02146BDE8F08D04
:1041B000814202DA002D18DA04E0404B994220DDFA
:1041C000002D12DD0220FCF71FF9FFF73AFC05462F
:1041D0000E46002253465846214600F06DFE14B0AC
:1041E00066F31E012846BDE8F08D0220FCF70CF9AD
:1041F000FFF72EFC0A46214614B062F31E01BDE80B
:10420000F08D00223046614601F07CF80646884673
:104210006FF0010201F03DFC4FF05532314B00F0E0
:104220007FFF3246434600F047FE00222E4B00F04F
:1042300077FF8A463246434602901046194600F000
:104240003BFE5346029A00F037FE8246324600E0BB
:1042500054E0059143464FF0C040244900F02CFE45
:10426000CDE90C01224A214B5046059900F024FE6D
:10427000824601911F4A204B3046414600F01CFE09
:104280005246019B01F03EF882460B4602460991D8
:10429000DDE90C0100F068FBDDE90C23002688460F
:1042A000304601F02FF85246099B00F039FF0246D4
:1042B00000F07EB9FFFF1F00FFFF0F000000F03F7E
:1042C0000000F07F0000404301FCFFFFC21B000024
:1042D0000000F0FF0000F0BF0000E0410000F043EC
:1042E000FFFFEF3F5555D53F0000E03F4715F73F33
:1042F000FE822B6544DF5DF80BAE543E0020B1F525
:10430000801F07DA35223046614601F0C2FB0646BF
:104310006FF0340000EB2150A0F2FF300190C1F3A8
:10432000130040F07F6141F040510291FE49884204
:10433000D8BF002004DDFD498142C8BF012001DD56
:104340000F9008E000200F900198401C0190029807
:10435000A0F5801002900299F548784405910F99D4
:1043600000EBC1001290D0E900233046059900F01F
:10437000C9FFCDE90C011298D0E900233046059918
:1043800000F0F2FA02460B460020EA4900F0A8FBD2
:104390000B46CDE908010246DDE90C0100F08CFD79
:1043A0000A90E5488A464FF0000878440299006870
:1043B00010904FF0005040EA61010F9801EB8040EF
:1043C00000F5002112981191D0E90023109800F017
:1043D00099FF3246059B00F0A3FE4246534600F08B
:1043E0006BFDDDE91023064603914046514600F07F
:1043F00063FDDDE90C2300F093FE3246039B00F0E1
:1044000081FFDDE9082300F057FD03910A9A12901D
:1044100053461046194600F04FFD06460246C7486F
:104420000B46029106217844FFF7A2FA029B32461E
:10443000059108901046194600F03EFD059B089A2C
:1044400000F03AFD064609915346404619460A9A3D
:1044500000F08AFA039B129A00F02EFD3246099B67
:1044600000F082FACDE9080142465346104619464B
:1044700000F022FD02460B46029104900020B04954
:1044800000F072FADDE9082300F06EFA0E464246AB
:10449000AB4B404600F036FF029B049A00F032FF1F
:1044A000DDE9082300F03CFE4246049102903346C9
:1044B0001046514600F000FDCDE90C0153460A9A22
:1044C0000499029800F0F8FC824600913346424677
:1044D0000399129800F0F0FC5246009B00F044FA59
:1044E00082460B4602460991DDE90C0100F03CFAD8
:1044F000DDE90C2300268846304600F003FF5246D3
:10450000099B00F00DFECDE90801434632464FF00D
:1045100060408C4900F0D0FC82460491DDE908013E
:10452000894A884B00F0C8FC02910090434632460D
:104530008648874900F0C0FC029B009A00F014FAFC
:10454000844B7B440F9A03EBC203D3E9002300F0B2
:104550000BFA00900291019800F05AFC0E90039122
:104560005046029B009A049900F0FEF97A4A7A4478
:104570000F9B02EBC3030993D3E9002300F0F4F986
:10458000039B0E9A00F0F0F988463046039B0E9A82
:1045900000F0B8FE099BD3E9002300F0B3FE5246B9
:1045A000049B00F0AFFE029B009A00F0B9FD0246AA
:1045B00000200B4602903846294600F07DFC8246DA
:1045C00003912B4638461946029A00F09BFE32466C
:1045D000434600F071FC5246039B00F0C5F90746C4
:1045E0008A46324643462946029800F065FC054655
:1045F0000E463A46534600F0B7F9584A884691426B
:1046000021DBA8EB020353EA000210D12A4633460D
:1046100000F078FECDE90310514A524B384651461E
:1046200000F0A2F9DDE9033200F044FD21D20220BE
:10463000FBF7EAFEFFF705FA0A46214614B062F3DB
:104640001E01BDE8F08D484B28F000429A4210D37D
:10465000464A08EB020353EA00027FF4C6AD2A463D
:10466000334600F04FFE3A46534600F023FD7FF6F6
:10467000BCAD0022019228F000403D493D4A01EBCB
:104680002051824223DA481C4FF4801121FA00F0B5
:104690004044394AC0F30A517A44384BA1F2FF3101
:1046A000CB4020EA0303C0F3130040F48010C1F1B3
:1046B0001401C84012680190B8F1000FBCBF40421D
:1046C00001902846314600F01DFE05460E462A465A
:1046D00033463846514600F047F94FF0000842464D
:1046E000274B4046039100F0E7FBCDE90C01254A3A
:1046F000254B4046039900F0DFFB029100902A46CB
:1047000033464046039900F0FDFD3A46534600F01B
:1047100007FD1E4A1E4B00F0CFFB029B009A00F0E3
:1047200023F90746884635E08E9803007AB60B00D9
:10473000C21700000000F03F3218000026170000EA
:104740000000084009C7EE3FFD033ADCF5015B14A9
:10475000E02F3EBEFA150000BE150000000090409C
:10476000FE822B654715973C00CC904000346F3F8C
:1047700001FCFFFF0000E03F44150000FFFF0F00B9
:10478000432EE63F396CA80C615C20BEEF39FAFE7F
:10479000422EE63F02460B46DDE90C0100F0E4F84C
:1047A000DDE90C2305460E4600F0ACFD3A464346D3
:1047B00000F0B6FC07462A463346059110461946D6
:1047C00000F07AFB824602462E4888460B460521B9
:1047D0007844FFF7CDF85246434600F06DFB2A4679
:1047E000334600F09DFC80468A463A4628463146CC
:1047F000059B00F061FB3A46059B00F0B5F805917A
:10480000009000224FF080434046514600F07AFD70
:1048100007460391424653462846314600F04CFB7A
:104820003A46039B00F05CF9059B009A00F06AFD94
:104830002A46334600F066FD0022134B00F070FC60
:10484000054601980E4601EB00510815002810DCC2
:1048500028463146019A01F01CF9FFF775F8042843
:1048600008BFFFF7F5F828463146019A01F011F923
:1048700005460B4614B02A4658462146BDE8F04D81
:1048800000F01ABBAC1300000000F03F2DE9F0412E
:1048900006460F4600F050FC041E0D4618BF0120CE
:1048A000284320F00040C0F17F6000F1E040C00FDD
:1048B0000ED0301C18BF0120384320F00040C0F15A
:1048C0007F6000F1E040C00F04BF0120FBF79CFDBA
:1048D00020462946BDE8F08110B500290AD00878A5
:1048E000002807D005487844FCF74CF9002801D08F
:1048F000002010BD0248784410BD00002E140000B6
:104900002614000021F0004201F00043A2F16052A1
:10491000B2F5801F28BFD2F17F6C0BD95FEA001C73
:1049200043EAC20242EB507018BF704728BF20F024
:1049300001007047B2F5801FBCBF184670474FEAB0
:10494000410C1CF5001F02D2084600F0F4BF70B500
:1049500000F05CFB00000089FFF7F6BF4FF000405D
:10496000A0F580007047000010B591EA030F48BF22
:1049700083F0004300F1CE84841A71EB030C05D25E
:10498000121943EB0C03001B61EB0C014FEA1154AD
:10499000A4EB135CDFF81CE11EEA430F18BF9EEA8C
:1049A000445F00F0748021EA045123EA0E0343F4CB
:1049B0008013DCF1200E32D322FA0CFE10EB0E0035
:1049C00023FA0CFE41EB0E01CCF1200E03FA0EFE91
:1049D00010EB0E00CCF1200E51F10001B1F5801F5B
:1049E00032D201EB045112FA0EF2BDE8104058BF6A
:1049F0007047401C38BF5FEA420218BF704700286A
:104A000014BF20F0010041F100014FEA410313F50A
:104A1000001F38BF7047A1F1C04100F045BB012A1B
:104A200043EB0302ACF1200CDCF11F0E32BF4FF060
:104A3000000E23FA0CF310EB030041EB0451B4EB2E
:104A4000115FD0D0A1EB045101F58011490801EBB1
:104A500004515FEA30000ED350F1000038BF12FA63
:104A60000EFE08D1BDE81040C9E7401C38BF5FEA20
:104A70004202CAD1C3E7BDE810404FEA410313F533
:104A8000001F38BF7047A1F1C04100F00DBB9EEA86
:104A9000445F08D011EA5E0FBDE8104004BF01F08A
:104AA000004100207047BDE8104070B500F0AEFA3C
:104AB00064FBBE3E0000E0FF02494FF0000000F042
:104AC000B6BF00BF0000F87F491058BFC1F1404198
:104AD0005B1058BFC3F140438B42EFF30080704737
:104AE0002DE9C04130B4DFF8A8C23CEA111418BF68
:104AF0003CEA131400F0F0801CEA111481EA03056B
:104B000044EAD57418BF1CEA131500F0CB80A4EB5F
:104B1000050404F17F7404F500344FF0004545EAC4
:104B2000C12145EAC32341EA505143EA52534FEAB7
:104B3000C0204FEAC222994208BF904200F0A080F4
:104B40004FEA13650FF24816765D4FEA134506FBF0
:104B500005F7C7F1807706FB07F74FEAD737A7FBC2
:104B600003687642A7FB06CEC8F5803838BFA8F1A7
:104B7000010807FB08E6A6FB028C4FF0000EE6FBDF
:104B800003CED8F100086FEA0C0C5CF1000C6FEA60
:104B90000E0E4EF1004EA6FB0C584FF00007E6FB40
:104BA0000E87A1FB08C6A0FB07CE16EB0E064FF042
:104BB000000545F10005E1FB076515F1E04E7EBFFC
:104BC000A4F580345FEA46066D4116F1800745F191
:104BD00000054FEA172747EA05674FEA15254FEA10
:104BE0000666A6F1DE46B6F1805F20D9384605EBB1
:104BF000C47124F0010C01EB0C11BCF1FE6F02D862
:104C0000F0BCBDE8008124425CBF01F5801E9EEA35
:104C1000C47F02D4F0BCBDE80081244200F1398099
:104C2000A1F1C041F0BCBDE8004100F03DBA4FEA3F
:104C3000D02040EA41504FEAD1214FEAD22242EA45
:104C400043524FEAD323A7FB028607FB036605FB0B
:104C500002661EEA0E0F58BFA6EB0056B6EB0056D2
:104C60004FEA520E4EEAC37E18EB0E0E56EB530E71
:104C7000BCD518EB02085E417F1C55F10005B5E775
:104C80004FF480154FF000074FF000064FF000087A
:104C9000ACE701F1C04101F000414FF00000F0BC71
:104CA000BDE800810CEA131511EA0C1F00D00CE0DE
:104CB00013EA0C1F00F025804FF0000081EA030189
:104CC00001F00041F0BCBDE80081F0BCBDE800414E
:104CD00081EA030100F0E8B9F0BCBDE8004170B51D
:104CE00000F094F9097EFC3E00F007B84FF0000098
:104CF00081EA030101F00041704781EA030100F0FD
:104D0000D3B9F0BCBDE8004122494FF00000704724
:104D1000FFFDFBF9F7F5F4F2F0EEEDEBE9E8E6E480
:104D2000E3E1E0DEDDDBDAD8D7D5D4D3D1D0CFCD07
:104D3000CCCBCAC8C7C6C5C4C2C1C0BFBEBDBCBB40
:104D4000BAB9B8B7B6B5B4B3B2B1B0AFAEADACAB3B
:104D5000AAA9A8A8A7A6A5A4A3A3A2A1A09F9F9E15
:104D60009D9C9C9B9A9999989797969595949393C7
:104D7000929191908F8F8E8E8D8C8C8B8B8A89895E
:104D800088888787868585848483838282818180E1
:104D90000000FF070000F87F51EA030C17D41CF550
:104DA000801F58BFBCF5801F00F10680994218BFD4
:104DB000704708BF9042704707D711F5801F58BF52
:104DC00013F5801F19D499427047894270471CF52A
:104DD000801F08D5BCF5801FF7D58B4218BF7047E0
:104DE00008BF824270474FF4001C1CEB410F38BFD4
:104DF0001CEB430F01D28B42704770B500F006F9EF
:104E0000922449004FF000514FF08053FFF75CBEF1
:104E100010F0004248BF4042B0FA80F310FA03F1AC
:104E20000AD0C3F11D0303F5806302EB03524FEA7E
:104E3000415002EBD12170474FF000007047000055
:104E400051EA030C17D41CF5801F58BFBCF5801F16
:104E500000F10680994218BF704708BF9042704722
:104E600007D711F5801F58BF13F5801F19D4994239
:104E70007047894270471CF5801F08D5BCF5801F1C
:104E8000F7D58B4218BF704708BF824270474FF476
:104E9000001C1CEB410F38BF1CEB430F01D28B42AF
:104EA000704770B500F0B2F8922449004FF00051FD
:104EB0004FF08053FFF708BE70B5DFF848C11CEA19
:104EC000111E1EBF1CEA13159EEA0C0F95EA0C0F6B
:104ED00000F06F8081EA03044EEAD47EAE4421EAFA
:104EE0004C1123EA4C1341F4801143F48013AEF1CA
:104EF0007F7EA1FB024CA0FB0365361955EB0C0528
:104F0000A1FB034C4CF10003A0FB021C16EB0C06AA
:104F1000654153F10003094218BF46F0010613F43E
:104F2000007F0BD14FEA03314FEA053041EA1551BA
:104F300040EA165034036FF003020AE04FEAC3213F
:104F40004FEAC52041EA555140EA5650F4026FF04D
:104F5000020202EB2E4201EB025585EACE710AD025
:104F60005FEA440C18BF24F0004450F1000041F106
:104F7000000120EAD47040F2FE7C624500D270BD90
:104F8000A84214BF4FF080444FF04044002E08BFA9
:104F90000024BEF1806FA8BFA1F1C041BDE8704000
:104FA00080F2828001F1C04101F000414FF0000029
:104FB00070470CEA13159EEA0C0F18BF95EA0C0F08
:104FC00006D081EA030E4FF000000EF0004170BDE4
:104FD00000F01CF88900013E00F007B800F009B8A5
:104FE0004FEA430C5FEA5C5C08D081EA030100F001
:104FF0005BB84FEA410C5FEA5C5CF6D102494FF0C6
:10500000000070470000FF070000F87F0EF1020E5D
:105010002EF0030E5EF8046B364205D4012A43EBF2
:10502000030515F5001F12D8012841EB010C1CF5F2
:10503000001F0CD80ED14FEAD17C0CEB4C0C0CF1BC
:10504000020C15F5001F08BF4CEBD37C04E04FF0B9
:10505000080C01E04FEAD37C0CEB4C0526FA05F670
:1050600006F00706B6F1040C06D20EEB860CBDE87E
:1050700070404CF0010C6047DFE80CF0090B0202B5
:105080004FF00041A1F500214FF0000070BD19461E
:105090001046012851EB010418BFD4F5001484BF59
:1050A000002001F0004170BD0808A0F500114FEA92
:1050B0003101704753EA010C17D41CF5801F58BF0B
:1050C000BCF5801F00F106808B4218BF704708BFF7
:1050D0008242704707D713F5801F58BF11F5801F14
:1050E00019D48B4270479B4270471CF5801F08D52E
:1050F000BCF5801FF7D5994218BF704708BF904292
:1051000070474FF4001C1CEB430F38BF1CEB410FE2
:1051100001D2994270470FB40CBC03BCFFF7C1BE6B
:1051200010B591EA030F81F000413FF525AC83F003
:10513000004300F0EFB800002DE9F04101F5801CBC
:10514000BCF5001FC0F2C3804FEA115C21EA0C518C
:1051500041F480110CF1FD0C5FEA5C0C0CF5C07C95
:1051600001D340004941890241EA905187023BA4A2
:105170008E0EA45D0A0C04FB04F602FB06F6C6F1D3
:105180004046A4FB0662F60D46EA422606FB06F4FC
:10519000A4FB01235242C3F1404338BF5B1EA6FB70
:1051A00002420024E6FB0324D20B42EA4446A6FB5B
:1051B0000623A1FB02E2A3FB07E4A4184FF00002C0
:1051C00052F10002E3FB01426442C2F1404E38BF9B
:1051D000AEF1010EA6FB04234FF00002E6FB0E32F7
:1051E000A2FB0346B6194FF0000454F10004E2FBA1
:1051F0000264A1FB06E6A4FB07E816EB08064FF0E5
:10520000000858F10008E4FB01687642C8F14058F4
:1052100038BFA8F10108A2FB06E4A3FB08E52D199D
:105220004FF0000454F10004E2FB0854A1FB05E632
:10523000A7FB04E818EB06084FF0000656F100063D
:10524000E1FB048618F1200556F10006A80940EAA2
:105250008660B109A8F11B0808F03F08B8F10A0FF1
:105260001CD901EB0C51BDE8F08100BFFCF5EEE864
:10527000E2DDD8D3CFCBC7C3C0BDB9B6B4B1AEACF5
:10528000A9A7A5A3A19F9D9B9A9896959392908F6D
:105290008D8C8B898887868584838281A0FB0068BA
:1052A00000FB01F208EB4208B8EB872807D5341859
:1052B00058EB0104D5D5401C51F10001D1E7341A57
:1052C00078EB0104CDD4401E71F10001C9E75FEA1B
:1052D0004C0C5FEA9C5C0DD105D301F000414FF00E
:1052E0000000BDE8F081BDE8F04170B5FFF78EFE2B
:1052F0006DDBFFBEBDE8F04101494FF00000704793
:105300000000F87F10B591EA030F48BF83F0004317
:105310003FF532AB841A71EB030C07D28CF0004CD2
:10532000121943EB0C03001B61EB0C014FEA115403
:10533000A4EB135CDFF8A4E11EEA430F18BF9EEA5A
:10534000445F00F0B48021EA045123EA6E03524224
:10535000C3EB6E0338BF5B1EDCF1200E25D322FAAF
:105360000CFE10EB0E0043FA0CFE41EB0E01CCF1EB
:10537000200E03FA0EFE10EB0E00CCF1200E51F1C0
:10538000000129D401EB045112FA0EF2BDE81040DD
:1053900058BF7047401C1CBFB2F1004F7047002837
:1053A0000CBF491C20F00100704712EB020E43EBCA
:1053B000030218BF4FF0010E4EEA4202ACF1200C7E
:1053C000DCF11E0E56D943FA0CFE10EB0E00CCF1A8
:1053D0001E0E51F1FF31D5D50EF1010E12FA0EFE5F
:1053E000404141EB010101EB445C5FEA5C5C10D998
:1053F00001EB045110EBDE7038BFBEF1004FBDE889
:10540000104018BF704700280CBF491C20F0010055
:10541000704734D24FEAD42C24F4006411F5001103
:105420001BD0B1FA81F20B3AA41AA41ED2F12003C8
:10543000914030FA03F31943904001EBCC7101EB3A
:105440000451002CBDE81040A8BF704701F1C041D5
:1054500001F000414FF000007047B0FA80F310FAFD
:1054600003F102D1BDE810407047E41A173C48052B
:10547000C90AE2E701EB0451BDE81040704749104A
:105480004FEA300001EB0451BDE8104002E04FF05C
:10549000000170474A0008BF0042F8D0B2F5001F73
:1054A00028BF704701F000414FF0000070479EEAAE
:1054B000445F07D011EA5E0FBDE8104004BF002131
:1054C00000207047BDE8104070B5FFF79FFD00BF9A
:1054D00040DFF63E104683F0004170470000E0FFD9
:1054E00043004FEAD30C4FEA3C0C43401FBF400738
:1054F0000CF1605113F0FE4F70471CF0006F03D1A8
:105500000CF00041002070470CF0004343EA50705B
:1055100040EACC0010B500F0C8F900BF00000092CE
:105520004FEA0001FFF7C0BD4FF00041A1F5002197
:105530004FF000007047000090EA010F48BF81F073
:10554000004100F10482421A3CBF801A89184FEAD8
:10555000D052A2EBD1534FF07F4C1CEA410F18BF41
:105560009CEA026F00F03B804FF0004C4CEA0020B8
:105570004CEA012121FA03FC10EB0C0C1ED202F1C3
:10558000FF325FEA1C2040EBC25038BF70471CF06E
:105590007F0F4FEA400C18BFBCF17F4F38BF7047F8
:1055A000C3F12003994008BF20F00100BCF17F4FF8
:1055B00038BF7047A0F1C04000F0BDB94FEA3C00D1
:1055C000000A40EBC25028BF1CF0FF0F4FEA400C0E
:1055D000E6D018BFBCF17F4F38BF7047EAE79CEABE
:1055E000026F05D010EA5C0F08BF00F00040704762
:1055F00010B500F05AF900BF64FBBE3E4FF47F0CBB
:105600001CEAD0121EBF1CEAD11392EA0C0F93EAD7
:105610000C0F00F0858090EA010F48BF42F48072C1
:1056200040F4000C41F400002CF07F4120F07F405A
:1056300000B5A2EB030281420FF2081CACEB504E06
:105640009EF800E0C0F100004FEA4E0E00FB0EFC99
:1056500038BF49004FEA2C1C0CFB0EF34FEACE1E5C
:105660000EEB635E4FEA112C0EFB0CFC4FEAC121DE
:105670004FEA1C5300FB031102F5FA024FEA112C0A
:105680000EFB0CFC4FEA01314FEADC4C00FB0C1125
:1056900042EB2242C14228BF09184CEB03335DF8AC
:1056A00004EB10EB410143EBC250B2F57C0F38BF65
:1056B000704729D512F0F00F1CBF00F1C04000F078
:1056C00000407047008182838485868788898B8C1F
:1056D0008D8E8F919293959697999A9C9D9FA0A25B
:1056E000A3A5A7A8AAACAEB0B2B3B5B7B9BCBEC0AB
:1056F000C2C5C7C9CCCED1D4D7D9DCDFE2E6E9EC4C
:10570000F0F3F7FAFE0000004FEA400C0CF1807C49
:10571000BCF17E4F28BF7047B0F1C04000F00BB91C
:105720000CEAD11390EA010F48BF42F4807262453F
:1057300038BF634507D213F47F0F16D080EA01000B
:1057400000F00040704710B500F0AFF8097EFC3E55
:1057500000F005B880EA010000F00040704780EAE0
:10576000010000F0004000F0E6B812F47F0F04BF23
:105770000248704780EA010000F0DDB80000C07FF9
:10578000B0FA80F310FA03F2C3F19D030AD0D905F1
:1057900001EB1220530638BF704700F1010008BF2B
:1057A00020F00100704700004FF47F0C1CEAD0127B
:1057B0001EBF1CEAD11392EA0C0F93EA0C0F00F003
:1057C000478090EA010F48BF42F480724FF0004CCE
:1057D0004CEA00204CEA012102EB0302A0FB01137A
:1057E000A2F50002002918BF43F001035B0028BFA7
:1057F0004FEA330342EB22425FEA132C4CEBC250D8
:105800002EBFBCEB436FB2F57C0F70474FEA036CC1
:10581000BCF1004F08BF20F00100B2F57C0F38BF8B
:1058200070470BD582F0FF0212F5803FC8BF70476A
:1058300000F1C040D8BF00F00040704700F5000CF8
:105840005FEA4C0C48BF7047B0F1C04000F073B83D
:105850000CEAD11390EA010F48BF42F4807262450E
:1058600038BF634504D280EA010000F00040704771
:1058700010B500F01AF800BF8900013E00F007B82B
:1058800000F009B85FEA410C5FEA1C6C08D080EABE
:10589000010000F050B85FEA400C5FEA1C6CF6D1E2
:1058A0004FF00040A0F5800070470EF1020E2EF080
:1058B000030E5EF8044B244204D44FEA4102B2F1D5
:1058C0007F4F11D84FEA4003B3F17F4F0CD80ED170
:1058D0004FEAD07C0CEB4C0C0CF1020CB2F17F4F78
:1058E00008BF4CEBD17C04E04FF0080C01E04FEA1C
:1058F000D17C0CEB4C0324FA03F404F00704B4F15C
:10590000040C06D20EEB840CBDE810404CF0010CE8
:105910006047DFE80CF0070802024FF00040A0F5F6
:10592000800010BD0846420018BFD2F1807288BFC7
:1059300000F0004010BDFF2141EAD050C005704783
:1059400090EA010F48BF81F000413FF5FCAD421ADB
:1059500004D882F00042A0EB020011444FEAD0527A
:10596000A2EBD1534FF07F4C1CEA410F18BF9CEAC9
:10597000026F4AD04FF0004C4CEA00204CEA012163
:1059800021FA03FCB0EB0C0C0FD412F0FE0F36D052
:105990005FEA4C001DD5001240EBC25038BF704783
:1059A0001CF03F0F18BF70470BE05FEA1C20A2F10C
:1059B000010240EBC25038BF70471CF07F0F18BF88
:1059C0007047C3F12003994014BF401E20F001002E
:1059D00070474FEA1223800808BF7047B0FA80FC76
:1059E000A2EB0C02CCF1280C60FA0CF093EA122F17
:1059F00004BF00EBC25070474FEAC3707047130AF0
:105A00005FEADC1008BF7047F6E79CEA026F04D03B
:105A100010EA5C0F08BF0020704710B5FFF745FF84
:105A200040DFF63E81F000407047FAF724BE0CF0EC
:105A30000F03092B08BF082000F059800A2B0BD058
:105A4000082B18BF704708BF1CF0400F0AD04FF05A
:105A500000004FF0000170471CF0400F18BF4FF0DE
:105A6000004070471CF0100F08D000F07F4220F07B
:105A7000704342EAD3014FEA4370704700F0604040
:105A800021F07F4242EA000201F07F4040EA72705A
:105A900070474FF0FF0C4CF4E06C1CEA11531CBF34
:105AA0009CEA030C9445C2BFDA4201EB02517047F5
:105AB000002B0DD0BCF1000F0FD001F00041002AE7
:105AC000A4BF41F0E04141F07F614FF0000070471A
:105AD00001F000414FF00000704750EA01334FF0F1
